{
  "_format": "hh-sol-artifact-1",
  "contractName": "AICatNFT",
  "sourceName": "contracts/AICatNFT.sol",
  "abi": [
    {
      "inputs": [
        {
          "internalType": "address",
          "name": "price_agg_address",
          "type": "address"
        }
      ],
      "stateMutability": "nonpayable",
      "type": "constructor"
    },
    {
      "anonymous": false,
      "inputs": [
        {
          "indexed": true,
          "internalType": "address",
          "name": "owner",
          "type": "address"
        },
        {
          "indexed": true,
          "internalType": "address",
          "name": "approved",
          "type": "address"
        },
        {
          "indexed": true,
          "internalType": "uint256",
          "name": "tokenId",
          "type": "uint256"
        }
      ],
      "name": "Approval",
      "type": "event"
    },
    {
      "anonymous": false,
      "inputs": [
        {
          "indexed": true,
          "internalType": "address",
          "name": "owner",
          "type": "address"
        },
        {
          "indexed": true,
          "internalType": "address",
          "name": "operator",
          "type": "address"
        },
        {
          "indexed": false,
          "internalType": "bool",
          "name": "approved",
          "type": "bool"
        }
      ],
      "name": "ApprovalForAll",
      "type": "event"
    },
    {
      "anonymous": false,
      "inputs": [
        {
          "indexed": true,
          "internalType": "uint256",
          "name": "ticket_id",
          "type": "uint256"
        }
      ],
      "name": "CatCreated",
      "type": "event"
    },
    {
      "anonymous": false,
      "inputs": [
        {
          "indexed": true,
          "internalType": "address",
          "name": "buyer",
          "type": "address"
        },
        {
          "indexed": true,
          "internalType": "uint256",
          "name": "ticket_id",
          "type": "uint256"
        }
      ],
      "name": "PurchasedTicket",
      "type": "event"
    },
    {
      "anonymous": false,
      "inputs": [
        {
          "indexed": true,
          "internalType": "address",
          "name": "from",
          "type": "address"
        },
        {
          "indexed": true,
          "internalType": "address",
          "name": "to",
          "type": "address"
        },
        {
          "indexed": true,
          "internalType": "uint256",
          "name": "tokenId",
          "type": "uint256"
        }
      ],
      "name": "Transfer",
      "type": "event"
    },
    {
      "inputs": [],
      "name": "_getLatestPrice",
      "outputs": [
        {
          "internalType": "uint256",
          "name": "",
          "type": "uint256"
        }
      ],
      "stateMutability": "view",
      "type": "function"
    },
    {
      "inputs": [
        {
          "internalType": "address",
          "name": "to",
          "type": "address"
        },
        {
          "internalType": "uint256",
          "name": "tokenId",
          "type": "uint256"
        }
      ],
      "name": "approve",
      "outputs": [],
      "stateMutability": "nonpayable",
      "type": "function"
    },
    {
      "inputs": [
        {
          "internalType": "address",
          "name": "owner",
          "type": "address"
        }
      ],
      "name": "balanceOf",
      "outputs": [
        {
          "internalType": "uint256",
          "name": "",
          "type": "uint256"
        }
      ],
      "stateMutability": "view",
      "type": "function"
    },
    {
      "inputs": [
        {
          "internalType": "uint256",
          "name": "ticket",
          "type": "uint256"
        },
        {
          "internalType": "string",
          "name": "tokenURI",
          "type": "string"
        }
      ],
      "name": "createCat",
      "outputs": [],
      "stateMutability": "nonpayable",
      "type": "function"
    },
    {
      "inputs": [
        {
          "internalType": "uint256",
          "name": "tokenId",
          "type": "uint256"
        }
      ],
      "name": "getApproved",
      "outputs": [
        {
          "internalType": "address",
          "name": "",
          "type": "address"
        }
      ],
      "stateMutability": "view",
      "type": "function"
    },
    {
      "inputs": [
        {
          "internalType": "address",
          "name": "owner",
          "type": "address"
        },
        {
          "internalType": "address",
          "name": "operator",
          "type": "address"
        }
      ],
      "name": "isApprovedForAll",
      "outputs": [
        {
          "internalType": "bool",
          "name": "",
          "type": "bool"
        }
      ],
      "stateMutability": "view",
      "type": "function"
    },
    {
      "inputs": [],
      "name": "name",
      "outputs": [
        {
          "internalType": "string",
          "name": "",
          "type": "string"
        }
      ],
      "stateMutability": "view",
      "type": "function"
    },
    {
      "inputs": [
        {
          "internalType": "uint256",
          "name": "tokenId",
          "type": "uint256"
        }
      ],
      "name": "ownerOf",
      "outputs": [
        {
          "internalType": "address",
          "name": "",
          "type": "address"
        }
      ],
      "stateMutability": "view",
      "type": "function"
    },
    {
      "inputs": [],
      "name": "purchaseTicket",
      "outputs": [],
      "stateMutability": "payable",
      "type": "function"
    },
    {
      "inputs": [
        {
          "internalType": "address",
          "name": "from",
          "type": "address"
        },
        {
          "internalType": "address",
          "name": "to",
          "type": "address"
        },
        {
          "internalType": "uint256",
          "name": "tokenId",
          "type": "uint256"
        }
      ],
      "name": "safeTransferFrom",
      "outputs": [],
      "stateMutability": "nonpayable",
      "type": "function"
    },
    {
      "inputs": [
        {
          "internalType": "address",
          "name": "from",
          "type": "address"
        },
        {
          "internalType": "address",
          "name": "to",
          "type": "address"
        },
        {
          "internalType": "uint256",
          "name": "tokenId",
          "type": "uint256"
        },
        {
          "internalType": "bytes",
          "name": "_data",
          "type": "bytes"
        }
      ],
      "name": "safeTransferFrom",
      "outputs": [],
      "stateMutability": "nonpayable",
      "type": "function"
    },
    {
      "inputs": [
        {
          "internalType": "address",
          "name": "operator",
          "type": "address"
        },
        {
          "internalType": "bool",
          "name": "approved",
          "type": "bool"
        }
      ],
      "name": "setApprovalForAll",
      "outputs": [],
      "stateMutability": "nonpayable",
      "type": "function"
    },
    {
      "inputs": [
        {
          "internalType": "uint256",
          "name": "price",
          "type": "uint256"
        }
      ],
      "name": "setMintPriceUSD",
      "outputs": [],
      "stateMutability": "nonpayable",
      "type": "function"
    },
    {
      "inputs": [
        {
          "internalType": "bytes4",
          "name": "interfaceId",
          "type": "bytes4"
        }
      ],
      "name": "supportsInterface",
      "outputs": [
        {
          "internalType": "bool",
          "name": "",
          "type": "bool"
        }
      ],
      "stateMutability": "view",
      "type": "function"
    },
    {
      "inputs": [],
      "name": "symbol",
      "outputs": [
        {
          "internalType": "string",
          "name": "",
          "type": "string"
        }
      ],
      "stateMutability": "view",
      "type": "function"
    },
    {
      "inputs": [
        {
          "internalType": "uint256",
          "name": "",
          "type": "uint256"
        }
      ],
      "name": "ticket_used",
      "outputs": [
        {
          "internalType": "bool",
          "name": "",
          "type": "bool"
        }
      ],
      "stateMutability": "view",
      "type": "function"
    },
    {
      "inputs": [
        {
          "internalType": "uint256",
          "name": "tokenId",
          "type": "uint256"
        }
      ],
      "name": "tokenURI",
      "outputs": [
        {
          "internalType": "string",
          "name": "",
          "type": "string"
        }
      ],
      "stateMutability": "view",
      "type": "function"
    },
    {
      "inputs": [
        {
          "internalType": "uint256",
          "name": "tokenId",
          "type": "uint256"
        }
      ],
      "name": "token_full_uri",
      "outputs": [
        {
          "internalType": "string",
          "name": "",
          "type": "string"
        }
      ],
      "stateMutability": "view",
      "type": "function"
    },
    {
      "inputs": [],
      "name": "total_cats",
      "outputs": [
        {
          "internalType": "uint256",
          "name": "",
          "type": "uint256"
        }
      ],
      "stateMutability": "view",
      "type": "function"
    },
    {
      "inputs": [
        {
          "internalType": "address",
          "name": "from",
          "type": "address"
        },
        {
          "internalType": "address",
          "name": "to",
          "type": "address"
        },
        {
          "internalType": "uint256",
          "name": "tokenId",
          "type": "uint256"
        }
      ],
      "name": "transferFrom",
      "outputs": [],
      "stateMutability": "nonpayable",
      "type": "function"
    }
  ],
  "bytecode": "0x608060405260006008553480156200001657600080fd5b506040516200397b3803806200397b83398181016040528101906200003c9190620002fa565b806040518060400160405280600881526020017f41494361744e46540000000000000000000000000000000000000000000000008152506040518060400160405280600481526020017f49434154000000000000000000000000000000000000000000000000000000008152508160009080519060200190620000c19291906200021c565b508060019080519060200190620000da9291906200021c565b50505080600660006101000a81548173ffffffffffffffffffffffffffffffffffffffff021916908373ffffffffffffffffffffffffffffffffffffffff160217905550600660009054906101000a900473ffffffffffffffffffffffffffffffffffffffff1673ffffffffffffffffffffffffffffffffffffffff1663313ce5676040518163ffffffff1660e01b815260040160206040518083038186803b1580156200018757600080fd5b505afa1580156200019c573d6000803e3d6000fd5b505050506040513d601f19601f82011682018060405250810190620001c2919062000326565b60ff166007819055505033600b60006101000a81548173ffffffffffffffffffffffffffffffffffffffff021916908373ffffffffffffffffffffffffffffffffffffffff1602179055506064600c81905550506200042c565b8280546200022a9062000393565b90600052602060002090601f0160209004810192826200024e57600085556200029a565b82601f106200026957805160ff19168380011785556200029a565b828001600101855582156200029a579182015b82811115620002995782518255916020019190600101906200027c565b5b509050620002a99190620002ad565b5090565b5b80821115620002c8576000816000905550600101620002ae565b5090565b600081519050620002dd81620003f8565b92915050565b600081519050620002f48162000412565b92915050565b6000602082840312156200030d57600080fd5b60006200031d84828501620002cc565b91505092915050565b6000602082840312156200033957600080fd5b60006200034984828501620002e3565b91505092915050565b60006200035f8262000366565b9050919050565b600073ffffffffffffffffffffffffffffffffffffffff82169050919050565b600060ff82169050919050565b60006002820490506001821680620003ac57607f821691505b60208210811415620003c357620003c2620003c9565b5b50919050565b7f4e487b7100000000000000000000000000000000000000000000000000000000600052602260045260246000fd5b620004038162000352565b81146200040f57600080fd5b50565b6200041d8162000386565b81146200042957600080fd5b50565b61353f806200043c6000396000f3fe60806040526004361061011f5760003560e01c806370a08231116100a0578063c87b56dd11610064578063c87b56dd146103c2578063ce00998f146103ff578063d79372031461043c578063e46d183f14610479578063e985e9c5146104a45761011f565b806370a08231146102dd57806395d89b411461031a578063a22cb46514610345578063b88d4fde1461036e578063c0e0982e146103975761011f565b80631cbb4131116100e75780631cbb41311461021b57806321846c761461024457806323b872dd1461024e57806342842e0e146102775780636352211e146102a05761011f565b806301ffc9a71461012457806306fdde0314610161578063081812fc1461018c57806308447d89146101c9578063095ea7b3146101f2575b600080fd5b34801561013057600080fd5b5061014b60048036038101906101469190612220565b6104e1565b6040516101589190612800565b60405180910390f35b34801561016d57600080fd5b506101766105c3565b604051610183919061281b565b60405180910390f35b34801561019857600080fd5b506101b360048036038101906101ae9190612272565b610655565b6040516101c09190612799565b60405180910390f35b3480156101d557600080fd5b506101f060048036038101906101eb919061229b565b6106da565b005b3480156101fe57600080fd5b50610219600480360381019061021491906121e4565b61079b565b005b34801561022757600080fd5b50610242600480360381019061023d9190612272565b6108b3565b005b61024c610917565b005b34801561025a57600080fd5b50610275600480360381019061027091906120de565b610aa7565b005b34801561028357600080fd5b5061029e600480360381019061029991906120de565b610b07565b005b3480156102ac57600080fd5b506102c760048036038101906102c29190612272565b610b27565b6040516102d49190612799565b60405180910390f35b3480156102e957600080fd5b5061030460048036038101906102ff9190612079565b610bd9565b60405161031191906129fd565b60405180910390f35b34801561032657600080fd5b5061032f610c91565b60405161033c919061281b565b60405180910390f35b34801561035157600080fd5b5061036c600480360381019061036791906121a8565b610d23565b005b34801561037a57600080fd5b506103956004803603810190610390919061212d565b610d39565b005b3480156103a357600080fd5b506103ac610d9b565b6040516103b991906129fd565b60405180910390f35b3480156103ce57600080fd5b506103e960048036038101906103e49190612272565b610e59565b6040516103f6919061281b565b60405180910390f35b34801561040b57600080fd5b5061042660048036038101906104219190612272565b610f00565b604051610433919061281b565b60405180910390f35b34801561044857600080fd5b50610463600480360381019061045e9190612272565b610f44565b6040516104709190612800565b60405180910390f35b34801561048557600080fd5b5061048e610f64565b60405161049b91906129fd565b60405180910390f35b3480156104b057600080fd5b506104cb60048036038101906104c691906120a2565b610f6a565b6040516104d89190612800565b60405180910390f35b60007f80ac58cd000000000000000000000000000000000000000000000000000000007bffffffffffffffffffffffffffffffffffffffffffffffffffffffff1916827bffffffffffffffffffffffffffffffffffffffffffffffffffffffff191614806105ac57507f5b5e139f000000000000000000000000000000000000000000000000000000007bffffffffffffffffffffffffffffffffffffffffffffffffffffffff1916827bffffffffffffffffffffffffffffffffffffffffffffffffffffffff1916145b806105bc57506105bb82610ffe565b5b9050919050565b6060600080546105d290612e4c565b80601f01602080910402602001604051908101604052809291908181526020018280546105fe90612e4c565b801561064b5780601f106106205761010080835404028352916020019161064b565b820191906000526020600020905b81548152906001019060200180831161062e57829003601f168201915b5050505050905090565b600061066082611068565b61069f576040517f08c379a00000000000000000000000000000000000000000000000000000000081526004016106969061295d565b60405180910390fd5b6004600083815260200190815260200160002060009054906101000a900473ffffffffffffffffffffffffffffffffffffffff169050919050565b826106e481610b27565b73ffffffffffffffffffffffffffffffffffffffff163373ffffffffffffffffffffffffffffffffffffffff161461071b57600080fd5b60016009600086815260200190815260200160002060006101000a81548160ff0219169083151502179055506107958484848080601f016020809104026020016040519081016040528093929190818152602001838380828437600081840152601f19601f820116905080830192505050505050506110d4565b50505050565b60006107a682610b27565b90508073ffffffffffffffffffffffffffffffffffffffff168373ffffffffffffffffffffffffffffffffffffffff161415610817576040517f08c379a000000000000000000000000000000000000000000000000000000000815260040161080e906129bd565b60405180910390fd5b8073ffffffffffffffffffffffffffffffffffffffff16610836611142565b73ffffffffffffffffffffffffffffffffffffffff16148061086557506108648161085f611142565b610f6a565b5b6108a4576040517f08c379a000000000000000000000000000000000000000000000000000000000815260040161089b906128dd565b60405180910390fd5b6108ae838361114a565b505050565b600b60009054906101000a900473ffffffffffffffffffffffffffffffffffffffff1673ffffffffffffffffffffffffffffffffffffffff163373ffffffffffffffffffffffffffffffffffffffff161461090d57600080fd5b80600c8190555050565b600c546000610924610d9b565b601260026007546109359190612d18565b61093f9190612ac6565b600a61094b9190612ba0565b836109569190612cbe565b6109609190612b1c565b90508034101561096f34611203565b61097883611203565b60405160200161098992919061275f565b604051602081830303815290604052906109d9576040517f08c379a00000000000000000000000000000000000000000000000000000000081526004016109d0919061281b565b60405180910390fd5b503373ffffffffffffffffffffffffffffffffffffffff166108fc8234610a009190612d18565b9081150290604051600060405180830381858888f19350505050158015610a2b573d6000803e3d6000fd5b5060006001600854610a3d9190612ac6565b9050610a4933826113b6565b6001600854610a589190612ac6565b600881905550803373ffffffffffffffffffffffffffffffffffffffff167ff48ad9d1a9675c7ed3ccf114533d6507ae320d2a2a945f643d05f29ee52d4c8460405160405180910390a3505050565b610ab8610ab2611142565b826113d4565b610af7576040517f08c379a0000000000000000000000000000000000000000000000000000000008152600401610aee906129dd565b60405180910390fd5b610b028383836114b2565b505050565b610b2283838360405180602001604052806000815250610d39565b505050565b6000806002600084815260200190815260200160002060009054906101000a900473ffffffffffffffffffffffffffffffffffffffff169050600073ffffffffffffffffffffffffffffffffffffffff168173ffffffffffffffffffffffffffffffffffffffff161415610bd0576040517f08c379a0000000000000000000000000000000000000000000000000000000008152600401610bc79061291d565b60405180910390fd5b80915050919050565b60008073ffffffffffffffffffffffffffffffffffffffff168273ffffffffffffffffffffffffffffffffffffffff161415610c4a576040517f08c379a0000000000000000000000000000000000000000000000000000000008152600401610c41906128fd565b60405180910390fd5b600360008373ffffffffffffffffffffffffffffffffffffffff1673ffffffffffffffffffffffffffffffffffffffff168152602001908152602001600020549050919050565b606060018054610ca090612e4c565b80601f0160208091040260200160405190810160405280929190818152602001828054610ccc90612e4c565b8015610d195780601f10610cee57610100808354040283529160200191610d19565b820191906000526020600020905b815481529060010190602001808311610cfc57829003601f168201915b5050505050905090565b610d35610d2e611142565b838361170e565b5050565b610d4a610d44611142565b836113d4565b610d89576040517f08c379a0000000000000000000000000000000000000000000000000000000008152600401610d80906129dd565b60405180910390fd5b610d958484848461187b565b50505050565b600080600080600080600660009054906101000a900473ffffffffffffffffffffffffffffffffffffffff1673ffffffffffffffffffffffffffffffffffffffff1663feaf968c6040518163ffffffff1660e01b815260040160a06040518083038186803b158015610e0c57600080fd5b505afa158015610e20573d6000803e3d6000fd5b505050506040513d601f19601f82011682018060405250810190610e4491906122f3565b94509450945094509450839550505050505090565b6060610e6482611068565b610ea3576040517f08c379a0000000000000000000000000000000000000000000000000000000008152600401610e9a9061299d565b60405180910390fd5b6000610ead6118d7565b90506000815111610ecd5760405180602001604052806000815250610ef8565b80610ed7846118f7565b604051602001610ee892919061270c565b6040516020818303038152906040525b915050919050565b6060610f0a6118d7565b600a6000848152602001908152602001600020604051602001610f2e929190612730565b6040516020818303038152906040529050919050565b60096020528060005260406000206000915054906101000a900460ff1681565b60085481565b6000600560008473ffffffffffffffffffffffffffffffffffffffff1673ffffffffffffffffffffffffffffffffffffffff16815260200190815260200160002060008373ffffffffffffffffffffffffffffffffffffffff1673ffffffffffffffffffffffffffffffffffffffff16815260200190815260200160002060009054906101000a900460ff16905092915050565b60007f01ffc9a7000000000000000000000000000000000000000000000000000000007bffffffffffffffffffffffffffffffffffffffffffffffffffffffff1916827bffffffffffffffffffffffffffffffffffffffffffffffffffffffff1916149050919050565b60008073ffffffffffffffffffffffffffffffffffffffff166002600084815260200190815260200160002060009054906101000a900473ffffffffffffffffffffffffffffffffffffffff1673ffffffffffffffffffffffffffffffffffffffff1614159050919050565b816110de81610b27565b73ffffffffffffffffffffffffffffffffffffffff163373ffffffffffffffffffffffffffffffffffffffff161461111557600080fd5b81600a6000858152602001908152602001600020908051906020019061113c929190611e7c565b50505050565b600033905090565b816004600083815260200190815260200160002060006101000a81548173ffffffffffffffffffffffffffffffffffffffff021916908373ffffffffffffffffffffffffffffffffffffffff160217905550808273ffffffffffffffffffffffffffffffffffffffff166111bd83610b27565b73ffffffffffffffffffffffffffffffffffffffff167f8c5be1e5ebec7d5bd14f71427d1e84f3dd0314c0f7b2291e5b200ac8c7c3b92560405160405180910390a45050565b6060600082141561124b576040518060400160405280600181526020017f300000000000000000000000000000000000000000000000000000000000000081525090506113b1565b600082905060005b6000821461127d57808061126690612eaf565b915050600a826112769190612b1c565b9150611253565b60008167ffffffffffffffff8111156112bf577f4e487b7100000000000000000000000000000000000000000000000000000000600052604160045260246000fd5b6040519080825280601f01601f1916602001820160405280156112f15781602001600182028036833780820191505090505b50905060008290508593505b600084146113a957600a846113129190612ef8565b603061131e9190612ac6565b60f81b828261132c90612e22565b92508281518110611366577f4e487b7100000000000000000000000000000000000000000000000000000000600052603260045260246000fd5b60200101907effffffffffffffffffffffffffffffffffffffffffffffffffffffffffffff1916908160001a905350600a846113a29190612b1c565b93506112fd565b819450505050505b919050565b6113d0828260405180602001604052806000815250611aa4565b5050565b60006113df82611068565b61141e576040517f08c379a0000000000000000000000000000000000000000000000000000000008152600401611415906128bd565b60405180910390fd5b600061142983610b27565b90508073ffffffffffffffffffffffffffffffffffffffff168473ffffffffffffffffffffffffffffffffffffffff16148061149857508373ffffffffffffffffffffffffffffffffffffffff1661148084610655565b73ffffffffffffffffffffffffffffffffffffffff16145b806114a957506114a88185610f6a565b5b91505092915050565b8273ffffffffffffffffffffffffffffffffffffffff166114d282610b27565b73ffffffffffffffffffffffffffffffffffffffff1614611528576040517f08c379a000000000000000000000000000000000000000000000000000000000815260040161151f9061297d565b60405180910390fd5b600073ffffffffffffffffffffffffffffffffffffffff168273ffffffffffffffffffffffffffffffffffffffff161415611598576040517f08c379a000000000000000000000000000000000000000000000000000000000815260040161158f9061287d565b60405180910390fd5b6115a3838383611aff565b6115ae60008261114a565b6001600360008573ffffffffffffffffffffffffffffffffffffffff1673ffffffffffffffffffffffffffffffffffffffff16815260200190815260200160002060008282546115fe9190612d18565b925050819055506001600360008473ffffffffffffffffffffffffffffffffffffffff1673ffffffffffffffffffffffffffffffffffffffff16815260200190815260200160002060008282546116559190612ac6565b92505081905550816002600083815260200190815260200160002060006101000a81548173ffffffffffffffffffffffffffffffffffffffff021916908373ffffffffffffffffffffffffffffffffffffffff160217905550808273ffffffffffffffffffffffffffffffffffffffff168473ffffffffffffffffffffffffffffffffffffffff167fddf252ad1be2c89b69c2b068fc378daa952ba7f163c4a11628f55a4df523b3ef60405160405180910390a4505050565b8173ffffffffffffffffffffffffffffffffffffffff168373ffffffffffffffffffffffffffffffffffffffff16141561177d576040517f08c379a00000000000000000000000000000000000000000000000000000000081526004016117749061289d565b60405180910390fd5b80600560008573ffffffffffffffffffffffffffffffffffffffff1673ffffffffffffffffffffffffffffffffffffffff16815260200190815260200160002060008473ffffffffffffffffffffffffffffffffffffffff1673ffffffffffffffffffffffffffffffffffffffff16815260200190815260200160002060006101000a81548160ff0219169083151502179055508173ffffffffffffffffffffffffffffffffffffffff168373ffffffffffffffffffffffffffffffffffffffff167f17307eab39ab6107e8899845ad3d59bd9653f200f220920489ca2b5937696c318360405161186e9190612800565b60405180910390a3505050565b6118868484846114b2565b61189284848484611b04565b6118d1576040517f08c379a00000000000000000000000000000000000000000000000000000000081526004016118c89061283d565b60405180910390fd5b50505050565b60606040518060600160405280602181526020016134e960219139905090565b6060600082141561193f576040518060400160405280600181526020017f30000000000000000000000000000000000000000000000000000000000000008152509050611a9f565b600082905060005b6000821461197157808061195a90612eaf565b915050600a8261196a9190612b1c565b9150611947565b60008167ffffffffffffffff8111156119b3577f4e487b7100000000000000000000000000000000000000000000000000000000600052604160045260246000fd5b6040519080825280601f01601f1916602001820160405280156119e55781602001600182028036833780820191505090505b5090505b60008514611a98576001826119fe9190612d18565b9150600a85611a0d9190612ef8565b6030611a199190612ac6565b60f81b818381518110611a55577f4e487b7100000000000000000000000000000000000000000000000000000000600052603260045260246000fd5b60200101907effffffffffffffffffffffffffffffffffffffffffffffffffffffffffffff1916908160001a905350600a85611a919190612b1c565b94506119e9565b8093505050505b919050565b611aae8383611c9b565b611abb6000848484611b04565b611afa576040517f08c379a0000000000000000000000000000000000000000000000000000000008152600401611af19061283d565b60405180910390fd5b505050565b505050565b6000611b258473ffffffffffffffffffffffffffffffffffffffff16611e69565b15611c8e578373ffffffffffffffffffffffffffffffffffffffff1663150b7a02611b4e611142565b8786866040518563ffffffff1660e01b8152600401611b7094939291906127b4565b602060405180830381600087803b158015611b8a57600080fd5b505af1925050508015611bbb57506040513d601f19601f82011682018060405250810190611bb89190612249565b60015b611c3e573d8060008114611beb576040519150601f19603f3d011682016040523d82523d6000602084013e611bf0565b606091505b50600081511415611c36576040517f08c379a0000000000000000000000000000000000000000000000000000000008152600401611c2d9061283d565b60405180910390fd5b805181602001fd5b63150b7a0260e01b7bffffffffffffffffffffffffffffffffffffffffffffffffffffffff1916817bffffffffffffffffffffffffffffffffffffffffffffffffffffffff191614915050611c93565b600190505b949350505050565b600073ffffffffffffffffffffffffffffffffffffffff168273ffffffffffffffffffffffffffffffffffffffff161415611d0b576040517f08c379a0000000000000000000000000000000000000000000000000000000008152600401611d029061293d565b60405180910390fd5b611d1481611068565b15611d54576040517f08c379a0000000000000000000000000000000000000000000000000000000008152600401611d4b9061285d565b60405180910390fd5b611d6060008383611aff565b6001600360008473ffffffffffffffffffffffffffffffffffffffff1673ffffffffffffffffffffffffffffffffffffffff1681526020019081526020016000206000828254611db09190612ac6565b92505081905550816002600083815260200190815260200160002060006101000a81548173ffffffffffffffffffffffffffffffffffffffff021916908373ffffffffffffffffffffffffffffffffffffffff160217905550808273ffffffffffffffffffffffffffffffffffffffff16600073ffffffffffffffffffffffffffffffffffffffff167fddf252ad1be2c89b69c2b068fc378daa952ba7f163c4a11628f55a4df523b3ef60405160405180910390a45050565b600080823b905060008111915050919050565b828054611e8890612e4c565b90600052602060002090601f016020900481019282611eaa5760008555611ef1565b82601f10611ec357805160ff1916838001178555611ef1565b82800160010185558215611ef1579182015b82811115611ef0578251825591602001919060010190611ed5565b5b509050611efe9190611f02565b5090565b5b80821115611f1b576000816000905550600101611f03565b5090565b6000611f32611f2d84612a3d565b612a18565b905082815260208101848484011115611f4a57600080fd5b611f55848285612de0565b509392505050565b600081359050611f6c8161345e565b92915050565b600081359050611f8181613475565b92915050565b600081359050611f968161348c565b92915050565b600081519050611fab8161348c565b92915050565b600082601f830112611fc257600080fd5b8135611fd2848260208601611f1f565b91505092915050565b600081519050611fea816134a3565b92915050565b60008083601f84011261200257600080fd5b8235905067ffffffffffffffff81111561201b57600080fd5b60208301915083600182028301111561203357600080fd5b9250929050565b600081359050612049816134ba565b92915050565b60008151905061205e816134ba565b92915050565b600081519050612073816134d1565b92915050565b60006020828403121561208b57600080fd5b600061209984828501611f5d565b91505092915050565b600080604083850312156120b557600080fd5b60006120c385828601611f5d565b92505060206120d485828601611f5d565b9150509250929050565b6000806000606084860312156120f357600080fd5b600061210186828701611f5d565b935050602061211286828701611f5d565b92505060406121238682870161203a565b9150509250925092565b6000806000806080858703121561214357600080fd5b600061215187828801611f5d565b945050602061216287828801611f5d565b93505060406121738782880161203a565b925050606085013567ffffffffffffffff81111561219057600080fd5b61219c87828801611fb1565b91505092959194509250565b600080604083850312156121bb57600080fd5b60006121c985828601611f5d565b92505060206121da85828601611f72565b9150509250929050565b600080604083850312156121f757600080fd5b600061220585828601611f5d565b92505060206122168582860161203a565b9150509250929050565b60006020828403121561223257600080fd5b600061224084828501611f87565b91505092915050565b60006020828403121561225b57600080fd5b600061226984828501611f9c565b91505092915050565b60006020828403121561228457600080fd5b60006122928482850161203a565b91505092915050565b6000806000604084860312156122b057600080fd5b60006122be8682870161203a565b935050602084013567ffffffffffffffff8111156122db57600080fd5b6122e786828701611ff0565b92509250509250925092565b600080600080600060a0868803121561230b57600080fd5b600061231988828901612064565b955050602061232a88828901611fdb565b945050604061233b8882890161204f565b935050606061234c8882890161204f565b925050608061235d88828901612064565b9150509295509295909350565b61237381612d4c565b82525050565b61238281612d5e565b82525050565b600061239382612a83565b61239d8185612a99565b93506123ad818560208601612def565b6123b681612fe5565b840191505092915050565b60006123cc82612a8e565b6123d68185612aaa565b93506123e6818560208601612def565b6123ef81612fe5565b840191505092915050565b600061240582612a8e565b61240f8185612abb565b935061241f818560208601612def565b80840191505092915050565b6000815461243881612e4c565b6124428186612abb565b9450600182166000811461245d576001811461246e576124a1565b60ff198316865281860193506124a1565b61247785612a6e565b60005b838110156124995781548189015260018201915060208101905061247a565b838801955050505b50505092915050565b60006124b7603283612aaa565b91506124c282613003565b604082019050919050565b60006124da601c83612aaa565b91506124e582613052565b602082019050919050565b60006124fd602483612aaa565b91506125088261307b565b604082019050919050565b6000612520601983612aaa565b915061252b826130ca565b602082019050919050565b6000612543602c83612aaa565b915061254e826130f3565b604082019050919050565b6000612566603883612aaa565b915061257182613142565b604082019050919050565b6000612589602a83612aaa565b915061259482613191565b604082019050919050565b60006125ac602983612aaa565b91506125b7826131e0565b604082019050919050565b60006125cf602083612aaa565b91506125da8261322f565b602082019050919050565b60006125f2602c83612aaa565b91506125fd82613258565b604082019050919050565b6000612615600383612abb565b9150612620826132a7565b600382019050919050565b6000612638602983612aaa565b9150612643826132d0565b604082019050919050565b600061265b602f83612aaa565b91506126668261331f565b604082019050919050565b600061267e602183612aaa565b91506126898261336e565b604082019050919050565b60006126a1601383612abb565b91506126ac826133bd565b601382019050919050565b60006126c4603183612aaa565b91506126cf826133e6565b604082019050919050565b60006126e7600183612abb565b91506126f282613435565b600182019050919050565b61270681612dc0565b82525050565b600061271882856123fa565b915061272482846123fa565b91508190509392505050565b600061273c82856123fa565b9150612747826126da565b9150612753828461242b565b91508190509392505050565b600061276a82612694565b915061277682856123fa565b915061278182612608565b915061278d82846123fa565b91508190509392505050565b60006020820190506127ae600083018461236a565b92915050565b60006080820190506127c9600083018761236a565b6127d6602083018661236a565b6127e360408301856126fd565b81810360608301526127f58184612388565b905095945050505050565b60006020820190506128156000830184612379565b92915050565b6000602082019050818103600083015261283581846123c1565b905092915050565b60006020820190508181036000830152612856816124aa565b9050919050565b60006020820190508181036000830152612876816124cd565b9050919050565b60006020820190508181036000830152612896816124f0565b9050919050565b600060208201905081810360008301526128b681612513565b9050919050565b600060208201905081810360008301526128d681612536565b9050919050565b600060208201905081810360008301526128f681612559565b9050919050565b600060208201905081810360008301526129168161257c565b9050919050565b600060208201905081810360008301526129368161259f565b9050919050565b60006020820190508181036000830152612956816125c2565b9050919050565b60006020820190508181036000830152612976816125e5565b9050919050565b600060208201905081810360008301526129968161262b565b9050919050565b600060208201905081810360008301526129b68161264e565b9050919050565b600060208201905081810360008301526129d681612671565b9050919050565b600060208201905081810360008301526129f6816126b7565b9050919050565b6000602082019050612a1260008301846126fd565b92915050565b6000612a22612a33565b9050612a2e8282612e7e565b919050565b6000604051905090565b600067ffffffffffffffff821115612a5857612a57612fb6565b5b612a6182612fe5565b9050602081019050919050565b60008190508160005260206000209050919050565b600081519050919050565b600081519050919050565b600082825260208201905092915050565b600082825260208201905092915050565b600081905092915050565b6000612ad182612dc0565b9150612adc83612dc0565b9250827fffffffffffffffffffffffffffffffffffffffffffffffffffffffffffffffff03821115612b1157612b10612f29565b5b828201905092915050565b6000612b2782612dc0565b9150612b3283612dc0565b925082612b4257612b41612f58565b5b828204905092915050565b6000808291508390505b6001851115612b9757808604811115612b7357612b72612f29565b5b6001851615612b825780820291505b8081029050612b9085612ff6565b9450612b57565b94509492505050565b6000612bab82612dc0565b9150612bb683612dc0565b9250612be37fffffffffffffffffffffffffffffffffffffffffffffffffffffffffffffffff8484612beb565b905092915050565b600082612bfb5760019050612cb7565b81612c095760009050612cb7565b8160018114612c1f5760028114612c2957612c58565b6001915050612cb7565b60ff841115612c3b57612c3a612f29565b5b8360020a915084821115612c5257612c51612f29565b5b50612cb7565b5060208310610133831016604e8410600b8410161715612c8d5782820a905083811115612c8857612c87612f29565b5b612cb7565b612c9a8484846001612b4d565b92509050818404811115612cb157612cb0612f29565b5b81810290505b9392505050565b6000612cc982612dc0565b9150612cd483612dc0565b9250817fffffffffffffffffffffffffffffffffffffffffffffffffffffffffffffffff0483118215151615612d0d57612d0c612f29565b5b828202905092915050565b6000612d2382612dc0565b9150612d2e83612dc0565b925082821015612d4157612d40612f29565b5b828203905092915050565b6000612d5782612da0565b9050919050565b60008115159050919050565b60007fffffffff0000000000000000000000000000000000000000000000000000000082169050919050565b6000819050919050565b600073ffffffffffffffffffffffffffffffffffffffff82169050919050565b6000819050919050565b600069ffffffffffffffffffff82169050919050565b82818337600083830152505050565b60005b83811015612e0d578082015181840152602081019050612df2565b83811115612e1c576000848401525b50505050565b6000612e2d82612dc0565b91506000821415612e4157612e40612f29565b5b600182039050919050565b60006002820490506001821680612e6457607f821691505b60208210811415612e7857612e77612f87565b5b50919050565b612e8782612fe5565b810181811067ffffffffffffffff82111715612ea657612ea5612fb6565b5b80604052505050565b6000612eba82612dc0565b91507fffffffffffffffffffffffffffffffffffffffffffffffffffffffffffffffff821415612eed57612eec612f29565b5b600182019050919050565b6000612f0382612dc0565b9150612f0e83612dc0565b925082612f1e57612f1d612f58565b5b828206905092915050565b7f4e487b7100000000000000000000000000000000000000000000000000000000600052601160045260246000fd5b7f4e487b7100000000000000000000000000000000000000000000000000000000600052601260045260246000fd5b7f4e487b7100000000000000000000000000000000000000000000000000000000600052602260045260246000fd5b7f4e487b7100000000000000000000000000000000000000000000000000000000600052604160045260246000fd5b6000601f19601f8301169050919050565b60008160011c9050919050565b7f4552433732313a207472616e7366657220746f206e6f6e20455243373231526560008201527f63656976657220696d706c656d656e7465720000000000000000000000000000602082015250565b7f4552433732313a20746f6b656e20616c7265616479206d696e74656400000000600082015250565b7f4552433732313a207472616e7366657220746f20746865207a65726f2061646460008201527f7265737300000000000000000000000000000000000000000000000000000000602082015250565b7f4552433732313a20617070726f766520746f2063616c6c657200000000000000600082015250565b7f4552433732313a206f70657261746f7220717565727920666f72206e6f6e657860008201527f697374656e7420746f6b656e0000000000000000000000000000000000000000602082015250565b7f4552433732313a20617070726f76652063616c6c6572206973206e6f74206f7760008201527f6e6572206e6f7220617070726f76656420666f7220616c6c0000000000000000602082015250565b7f4552433732313a2062616c616e636520717565727920666f7220746865207a6560008201527f726f206164647265737300000000000000000000000000000000000000000000602082015250565b7f4552433732313a206f776e657220717565727920666f72206e6f6e657869737460008201527f656e7420746f6b656e0000000000000000000000000000000000000000000000602082015250565b7f4552433732313a206d696e7420746f20746865207a65726f2061646472657373600082015250565b7f4552433732313a20617070726f76656420717565727920666f72206e6f6e657860008201527f697374656e7420746f6b656e0000000000000000000000000000000000000000602082015250565b7f202d200000000000000000000000000000000000000000000000000000000000600082015250565b7f4552433732313a207472616e73666572206f6620746f6b656e2074686174206960008201527f73206e6f74206f776e0000000000000000000000000000000000000000000000602082015250565b7f4552433732314d657461646174613a2055524920717565727920666f72206e6f60008201527f6e6578697374656e7420746f6b656e0000000000000000000000000000000000602082015250565b7f4552433732313a20617070726f76616c20746f2063757272656e74206f776e6560008201527f7200000000000000000000000000000000000000000000000000000000000000602082015250565b7f496e73756666696369656e7420455448202d2000000000000000000000000000600082015250565b7f4552433732313a207472616e736665722063616c6c6572206973206e6f74206f60008201527f776e6572206e6f7220617070726f766564000000000000000000000000000000602082015250565b7f2f00000000000000000000000000000000000000000000000000000000000000600082015250565b61346781612d4c565b811461347257600080fd5b50565b61347e81612d5e565b811461348957600080fd5b50565b61349581612d6a565b81146134a057600080fd5b50565b6134ac81612d96565b81146134b757600080fd5b50565b6134c381612dc0565b81146134ce57600080fd5b50565b6134da81612dca565b81146134e557600080fd5b5056fe68747470733a2f2f676174657761792e70696e6174612e636c6f75642f69706673a26469706673582212205b8c409e1dd826236331f9f8372a03d2c2eab534aefb8bc30c56bf78125f352b64736f6c63430008040033",
  "linkReferences": {},
  "deployedLinkReferences": {}
}