{
  "_format": "hh-sol-artifact-1",
  "contractName": "Billable",
  "sourceName": "contracts/Billable.sol",
  "abi": [
    {
      "inputs": [
        {
          "internalType": "address",
          "name": "price_agg_address",
          "type": "address"
        }
      ],
      "stateMutability": "nonpayable",
      "type": "constructor"
    },
    {
      "inputs": [],
      "name": "_getLatestPrice",
      "outputs": [
        {
          "internalType": "uint256",
          "name": "",
          "type": "uint256"
        }
      ],
      "stateMutability": "view",
      "type": "function"
    }
  ],
  "bytecode": "0x608060405234801561001057600080fd5b506040516104a63803806104a683398181016040528101906100329190610149565b806000806101000a81548173ffffffffffffffffffffffffffffffffffffffff021916908373ffffffffffffffffffffffffffffffffffffffff16021790555060008054906101000a900473ffffffffffffffffffffffffffffffffffffffff1673ffffffffffffffffffffffffffffffffffffffff1663313ce5676040518163ffffffff1660e01b815260040160206040518083038186803b1580156100d857600080fd5b505afa1580156100ec573d6000803e3d6000fd5b505050506040513d601f19601f820116820180604052508101906101109190610172565b60ff1660018190555050610208565b60008151905061012e816101da565b92915050565b600081519050610143816101f1565b92915050565b60006020828403121561015b57600080fd5b60006101698482850161011f565b91505092915050565b60006020828403121561018457600080fd5b600061019284828501610134565b91505092915050565b60006101a6826101ad565b9050919050565b600073ffffffffffffffffffffffffffffffffffffffff82169050919050565b600060ff82169050919050565b6101e38161019b565b81146101ee57600080fd5b50565b6101fa816101cd565b811461020557600080fd5b50565b61028f806102176000396000f3fe608060405234801561001057600080fd5b506004361061002b5760003560e01c8063c0e0982e14610030575b600080fd5b61003861004e565b60405161004591906101cf565b60405180910390f35b60008060008060008060008054906101000a900473ffffffffffffffffffffffffffffffffffffffff1673ffffffffffffffffffffffffffffffffffffffff1663feaf968c6040518163ffffffff1660e01b815260040160a06040518083038186803b1580156100bd57600080fd5b505afa1580156100d1573d6000803e3d6000fd5b505050506040513d601f19601f820116820180604052508101906100f59190610149565b94509450945094509450839550505050505090565b60008151905061011981610214565b92915050565b60008151905061012e8161022b565b92915050565b60008151905061014381610242565b92915050565b600080600080600060a0868803121561016157600080fd5b600061016f88828901610134565b95505060206101808882890161010a565b94505060406101918882890161011f565b93505060606101a28882890161011f565b92505060806101b388828901610134565b9150509295509295909350565b6101c9816101f4565b82525050565b60006020820190506101e460008301846101c0565b92915050565b6000819050919050565b6000819050919050565b600069ffffffffffffffffffff82169050919050565b61021d816101ea565b811461022857600080fd5b50565b610234816101f4565b811461023f57600080fd5b50565b61024b816101fe565b811461025657600080fd5b5056fea264697066735822122002f3dfa1efa68196bc1d46988c81c11423846b3f048707cd6660594cfbc8ff3664736f6c63430008040033",
  "linkReferences": {},
  "deployedLinkReferences": {}
}